:100000000C942A000C9447000C9447000C94470071
:100010000C9447000C9447000C9447000C94470044
:100020000C9447000C9447000C9447000C94470034
:100030000C9447000C9447000C9447000C94470024
:100040000C9447000C9447000C9447000C94470014
:100050000C94470011241FBECFE5D4E0DEBFCDBF16
:1000600011E0A0E6B0E0ECE4F5E002C005900D92EE
:10007000AA34B107D9F711E0AAE4B1E001C01D929A
:10008000AC34B107E1F70E947B020C94A4020C94FB
:10009000000087E689B910BC86E880BD88E18AB98E
:1000A00008955D9BFECF8CB908955F9BFECF8CB108
:1000B000089520E004C05D9BFECFECB92F5FFC01EA
:1000C000E20FF11DE081EE23B1F70895DF93CF93A6
:1000D00000D000D00F92CDB7DEB79C01FE01339661
:1000E00083E0DF011D928A95E9F7C9016AE070E0BB
:1000F0000E949002805D8A83C9016AE070E00E94DC
:100100009002CB016AE070E00E949002805D8983DA
:1001100080E09E012F5F3F4F04C05D9BFECFECB996
:100120008F5FF901E80FF11DE081EE23B1F70F9029
:100130000F900F900F900F90CF91DF91089580E472
:1001400087B987E886B90895806487B9369A349B61
:10015000FECF349A24B135B1C90108955F9BFECF1B
:100160008CB18F34D9F75F9BFECF8CB18B34B1F754
:100170008CED95E020E931E0F9013197F1F7019735
:10018000D9F70895DF93CF93CDB7DEB7E3970FB6D6
:10019000F894DEBF0FBECDBF1ABA80E487B987E8F6
:1001A00086B987E689B910BC86E880BD88E18AB93E
:1001B000DE011496E0E6F0E08CE001900D928150B3
:1001C000E1F7DE015D96ECE6F0E087E101900D924B
:1001D0008150E1F7DE015096E3E8F0E08DE0019018
:1001E0000D928150E1F7DE011196E0E9F0E083E045
:1001F00001900D928150E1F781E487B9369A349BE2
:10020000FECF349A84B195B1880F991F880F991F3A
:100210006AE070E00E94900260934A0170934B0183
:1002200020E0AE014C5F5F4F04C05D9BFECFECB998
:100230002F5FFA01E20FF11DE081EE23B1F728EB09
:100240003BE040E951E0FA013197F1F721503040AD
:10025000D1F720E0AE01435E5F4F04C05D9BFECF4F
:10026000ECB92F5FFA01E20FF11DE081EE23B1F747
:1002700028EB3BE040E951E0FA013197F1F72150DA
:100280003040D1F720E0AE01405F5F4F04C05D9B7E
:10029000FECFECB92F5FFA01E20FF11DE081EE23F2
:1002A000B1F7CB010E94660080E09E012F5F3F4FB7
:1002B00004C05D9BFECFECB98F5FF901E80FF11D23
:1002C000E081EE23B1F788EB9BE020E931E0F90112
:1002D0003197F1F70197D9F75D9BFECF8AE18CB991
:1002E000E3960FB6F894DEBF0FBECDBFCF91DF917E
:1002F0000895DF93CF93CDB7DEB7C65BD0400FB67E
:10030000F894DEBF0FBECDBF87E689B910BC86E882
:1003100080BD88E18AB9DE019996E3E9F0E08AE1DF
:1003200001900D928150E1F7DE015B96EDEAF0E07D
:100330008EE001900D928150E1F7DE011196EBEB1A
:10034000F0E08DE001900D928150E1F7DE01AD5BB0
:10035000BF4FE8ECF0E08CE201900D928150E1F7A4
:10036000DE011E96E4EFF0E08DE001900D928150E9
:10037000E1F7DE01A159BF4FE1E0F1E088E401902F
:100380000D928150E1F79E01255E3F4F04C05D9BB9
:10039000FECFECB98F5FF901E80FF11DE081EE238C
:1003A000B1F75F9BFECF8CB18F34D9F75F9BFECF47
:1003B0008CB18B34B1F78CED95E020E931E0F90197
:1003C0003197F1F70197D9F780E09E01275D3F4F04
:1003D00004C05D9BFECFECB98F5FF901E80FF11D02
:1003E000E081EE23B1F75F9BFECF8CB18F34D9F75C
:1003F0005F9BFECF8CB18B34B1F78CED95E020E99B
:1004000031E0F9013197F1F70197D9F780E09E01CA
:100410002D5B3F4F04C05D9BFECFECB98F5FF901B0
:10042000E80FF11DE081EE23B1F75F9BFECF8CB1A9
:100430008F34D9F75F9BFECF8CB18B34B1F78CED45
:1004400095E020E931E0F9013197F1F70197D9F70B
:1004500080E09E01225F3F4F04C05D9BFECFECB960
:100460008F5FF901E80FF11DE081EE23B1F780E124
:1004700097E220E931E0F9013197F1F70197D9F7D7
:1004800080E09E0121593F4F04C05D9BFECFECB937
:100490008F5FF901E80FF11DE081EE23B1F7809144
:1004A0004A0190914B010E9466005D9BFECF8AE15C
:1004B0008CB980E09E012F5F3F4F04C05D9BFECF53
:1004C000ECB98F5FF901E80FF11DE081EE23B1F780
:1004D00088EB9BE020E931E0F9013197F1F70197D2
:1004E000D9F7CA54DF4F0FB6F894DEBF0FBECDBFA9
:1004F000CF91DF910895CF93DF93C0E9D1E00E94BF
:1005000079018FEF9FEFFE013197F1F70197D9F74E
:100510008FEF9FEFFE013197F1F70197D9F7EFCFFA
:10052000AA1BBB1B51E107C0AA1FBB1FA617B70719
:1005300010F0A61BB70B881F991F5A95A9F7809535
:0C0540009095BC01CD010895F894FFCF08
:10054C0041542B434D47463D310D0A0041542B433A
:10055C004D47533D2238383832333435333938220D
:10056C000D0A0054656D70657261747572653D009D
:10057C002A430041542B434950435347503D312C9F
:10058C0022494E5445524E4554220D0A0041542BDB
:10059C004349504D55583D300D0A0041542B4349A9
:1005AC0050534855540D0A0041542B434950535451
:1005BC004152543D22544350222C226170692E74B6
:1005CC0068696E67737065616B2E636F6D222C3872
:1005DC00300D0A0041542B43495053454E440D0AEB
:1005EC00004745542068747470733A2F2F617069FA
:1005FC002E7468696E67737065616B2E636F6D2FF7
:10060C007570646174653F6170695F6B65793D54A9
:10061C00425444384138435831444553474E54268C
:0A062C006669656C64313D30000022
:00000001FF
